{
  "abi": [
    {
      "inputs": [],
      "stateMutability": "nonpayable",
      "type": "constructor"
    },
    {
      "anonymous": false,
      "inputs": [
        {
          "indexed": true,
          "internalType": "address",
          "name": "owner",
          "type": "address"
        },
        {
          "indexed": true,
          "internalType": "address",
          "name": "approved",
          "type": "address"
        },
        {
          "indexed": true,
          "internalType": "uint256",
          "name": "tokenId",
          "type": "uint256"
        }
      ],
      "name": "Approval",
      "type": "event"
    },
    {
      "anonymous": false,
      "inputs": [
        {
          "indexed": true,
          "internalType": "address",
          "name": "owner",
          "type": "address"
        },
        {
          "indexed": true,
          "internalType": "address",
          "name": "operator",
          "type": "address"
        },
        {
          "indexed": false,
          "internalType": "bool",
          "name": "approved",
          "type": "bool"
        }
      ],
      "name": "ApprovalForAll",
      "type": "event"
    },
    {
      "anonymous": false,
      "inputs": [
        {
          "indexed": true,
          "internalType": "address",
          "name": "previousOwner",
          "type": "address"
        },
        {
          "indexed": true,
          "internalType": "address",
          "name": "newOwner",
          "type": "address"
        }
      ],
      "name": "OwnershipTransferred",
      "type": "event"
    },
    {
      "anonymous": false,
      "inputs": [
        {
          "indexed": true,
          "internalType": "address",
          "name": "from",
          "type": "address"
        },
        {
          "indexed": true,
          "internalType": "address",
          "name": "to",
          "type": "address"
        },
        {
          "indexed": true,
          "internalType": "uint256",
          "name": "tokenId",
          "type": "uint256"
        }
      ],
      "name": "Transfer",
      "type": "event"
    },
    {
      "inputs": [],
      "name": "URI",
      "outputs": [
        {
          "internalType": "string",
          "name": "",
          "type": "string"
        }
      ],
      "stateMutability": "view",
      "type": "function"
    },
    {
      "inputs": [
        {
          "internalType": "address",
          "name": "to",
          "type": "address"
        },
        {
          "internalType": "uint256",
          "name": "tokenId",
          "type": "uint256"
        }
      ],
      "name": "approve",
      "outputs": [],
      "stateMutability": "nonpayable",
      "type": "function"
    },
    {
      "inputs": [
        {
          "internalType": "address",
          "name": "owner",
          "type": "address"
        }
      ],
      "name": "balanceOf",
      "outputs": [
        {
          "internalType": "uint256",
          "name": "",
          "type": "uint256"
        }
      ],
      "stateMutability": "view",
      "type": "function"
    },
    {
      "inputs": [
        {
          "internalType": "uint256",
          "name": "tokenId",
          "type": "uint256"
        }
      ],
      "name": "getApproved",
      "outputs": [
        {
          "internalType": "address",
          "name": "",
          "type": "address"
        }
      ],
      "stateMutability": "view",
      "type": "function"
    },
    {
      "inputs": [
        {
          "internalType": "address",
          "name": "owner",
          "type": "address"
        },
        {
          "internalType": "address",
          "name": "operator",
          "type": "address"
        }
      ],
      "name": "isApprovedForAll",
      "outputs": [
        {
          "internalType": "bool",
          "name": "",
          "type": "bool"
        }
      ],
      "stateMutability": "view",
      "type": "function"
    },
    {
      "inputs": [],
      "name": "maxPerTxn",
      "outputs": [
        {
          "internalType": "uint256",
          "name": "",
          "type": "uint256"
        }
      ],
      "stateMutability": "view",
      "type": "function"
    },
    {
      "inputs": [],
      "name": "maxSupply",
      "outputs": [
        {
          "internalType": "uint256",
          "name": "",
          "type": "uint256"
        }
      ],
      "stateMutability": "view",
      "type": "function"
    },
    {
      "inputs": [
        {
          "internalType": "address",
          "name": "to",
          "type": "address"
        },
        {
          "internalType": "uint256",
          "name": "_amount",
          "type": "uint256"
        }
      ],
      "name": "mintItem",
      "outputs": [],
      "stateMutability": "payable",
      "type": "function"
    },
    {
      "inputs": [],
      "name": "mintPrice",
      "outputs": [
        {
          "internalType": "uint256",
          "name": "",
          "type": "uint256"
        }
      ],
      "stateMutability": "view",
      "type": "function"
    },
    {
      "inputs": [],
      "name": "name",
      "outputs": [
        {
          "internalType": "string",
          "name": "",
          "type": "string"
        }
      ],
      "stateMutability": "view",
      "type": "function"
    },
    {
      "inputs": [],
      "name": "owner",
      "outputs": [
        {
          "internalType": "address",
          "name": "",
          "type": "address"
        }
      ],
      "stateMutability": "view",
      "type": "function"
    },
    {
      "inputs": [
        {
          "internalType": "uint256",
          "name": "tokenId",
          "type": "uint256"
        }
      ],
      "name": "ownerOf",
      "outputs": [
        {
          "internalType": "address",
          "name": "",
          "type": "address"
        }
      ],
      "stateMutability": "view",
      "type": "function"
    },
    {
      "inputs": [],
      "name": "renounceOwnership",
      "outputs": [],
      "stateMutability": "nonpayable",
      "type": "function"
    },
    {
      "inputs": [
        {
          "internalType": "address",
          "name": "from",
          "type": "address"
        },
        {
          "internalType": "address",
          "name": "to",
          "type": "address"
        },
        {
          "internalType": "uint256",
          "name": "tokenId",
          "type": "uint256"
        }
      ],
      "name": "safeTransferFrom",
      "outputs": [],
      "stateMutability": "nonpayable",
      "type": "function"
    },
    {
      "inputs": [
        {
          "internalType": "address",
          "name": "from",
          "type": "address"
        },
        {
          "internalType": "address",
          "name": "to",
          "type": "address"
        },
        {
          "internalType": "uint256",
          "name": "tokenId",
          "type": "uint256"
        },
        {
          "internalType": "bytes",
          "name": "data",
          "type": "bytes"
        }
      ],
      "name": "safeTransferFrom",
      "outputs": [],
      "stateMutability": "nonpayable",
      "type": "function"
    },
    {
      "inputs": [
        {
          "internalType": "address",
          "name": "operator",
          "type": "address"
        },
        {
          "internalType": "bool",
          "name": "approved",
          "type": "bool"
        }
      ],
      "name": "setApprovalForAll",
      "outputs": [],
      "stateMutability": "nonpayable",
      "type": "function"
    },
    {
      "inputs": [
        {
          "internalType": "bytes4",
          "name": "interfaceId",
          "type": "bytes4"
        }
      ],
      "name": "supportsInterface",
      "outputs": [
        {
          "internalType": "bool",
          "name": "",
          "type": "bool"
        }
      ],
      "stateMutability": "view",
      "type": "function"
    },
    {
      "inputs": [],
      "name": "symbol",
      "outputs": [
        {
          "internalType": "string",
          "name": "",
          "type": "string"
        }
      ],
      "stateMutability": "view",
      "type": "function"
    },
    {
      "inputs": [
        {
          "internalType": "uint256",
          "name": "index",
          "type": "uint256"
        }
      ],
      "name": "tokenByIndex",
      "outputs": [
        {
          "internalType": "uint256",
          "name": "",
          "type": "uint256"
        }
      ],
      "stateMutability": "view",
      "type": "function"
    },
    {
      "inputs": [],
      "name": "tokenIdCounter",
      "outputs": [
        {
          "internalType": "uint256",
          "name": "",
          "type": "uint256"
        }
      ],
      "stateMutability": "view",
      "type": "function"
    },
    {
      "inputs": [
        {
          "internalType": "address",
          "name": "owner",
          "type": "address"
        },
        {
          "internalType": "uint256",
          "name": "index",
          "type": "uint256"
        }
      ],
      "name": "tokenOfOwnerByIndex",
      "outputs": [
        {
          "internalType": "uint256",
          "name": "",
          "type": "uint256"
        }
      ],
      "stateMutability": "view",
      "type": "function"
    },
    {
      "inputs": [
        {
          "internalType": "uint256",
          "name": "tokenId",
          "type": "uint256"
        }
      ],
      "name": "tokenURI",
      "outputs": [
        {
          "internalType": "string",
          "name": "",
          "type": "string"
        }
      ],
      "stateMutability": "view",
      "type": "function"
    },
    {
      "inputs": [],
      "name": "totalSupply",
      "outputs": [
        {
          "internalType": "uint256",
          "name": "",
          "type": "uint256"
        }
      ],
      "stateMutability": "view",
      "type": "function"
    },
    {
      "inputs": [
        {
          "internalType": "address",
          "name": "from",
          "type": "address"
        },
        {
          "internalType": "address",
          "name": "to",
          "type": "address"
        },
        {
          "internalType": "uint256",
          "name": "tokenId",
          "type": "uint256"
        }
      ],
      "name": "transferFrom",
      "outputs": [],
      "stateMutability": "nonpayable",
      "type": "function"
    },
    {
      "inputs": [
        {
          "internalType": "address",
          "name": "newOwner",
          "type": "address"
        }
      ],
      "name": "transferOwnership",
      "outputs": [],
      "stateMutability": "nonpayable",
      "type": "function"
    },
    {
      "inputs": [],
      "name": "withdraw",
      "outputs": [],
      "stateMutability": "nonpayable",
      "type": "function"
    }
  ],
  "bytecode": {
    "object": "0x6000600c55662386f26fc10000600d556005600e5561010060405260436080818152906200225760a039600f90620000389082620001c8565b503480156200004657600080fd5b506040518060400160405280600e81526020016d105c98d8591951d85b595cd3919560921b8152506040518060400160405280600381526020016220a3a760e91b81525081600090816200009b9190620001c8565b506001620000aa8282620001c8565b505050620000c7620000c1620000cd60201b60201c565b620000d1565b62000294565b3390565b600b80546001600160a01b038381166001600160a01b0319831681179093556040519116919082907f8be0079c531659141344cd1fd0a4f28419497f9722a3daafe3b4186f6b6457e090600090a35050565b634e487b7160e01b600052604160045260246000fd5b600181811c908216806200014e57607f821691505b6020821081036200016f57634e487b7160e01b600052602260045260246000fd5b50919050565b601f821115620001c357600081815260208120601f850160051c810160208610156200019e5750805b601f850160051c820191505b81811015620001bf57828155600101620001aa565b5050505b505050565b81516001600160401b03811115620001e457620001e462000123565b620001fc81620001f5845462000139565b8462000175565b602080601f8311600181146200023457600084156200021b5750858301515b600019600386901b1c1916600185901b178555620001bf565b600085815260208120601f198616915b82811015620002655788860151825594840194600190910190840162000244565b5085821015620002845787850151600019600388901b60f8161c191681555b5050505050600190811b01905550565b611fb380620002a46000396000f3fe6080604052600436106101815760003560e01c80636817c76c116100d1578063a22cb4651161008a578063d5abeb0111610064578063d5abeb011461042a578063e985e9c51461043f578063f2fde38b14610488578063f6a4a3fd146104a857600080fd5b8063a22cb465146103ca578063b88d4fde146103ea578063c87b56dd1461040a57600080fd5b80636817c76c1461033657806370a082311461034c578063715018a61461036c5780638da5cb5b1461038157806395d89b411461039f57806398bdf6f5146103b457600080fd5b806323b872dd1161013e5780633ccfd60b116101185780633ccfd60b146102c157806342842e0e146102d65780634f6ccce7146102f65780636352211e1461031657600080fd5b806323b872dd1461026b5780632f745c591461028b5780633cb51994146102ab57600080fd5b806301ffc9a71461018657806306fdde03146101bb578063081812fc146101dd578063095ea7b3146102155780631141d7de1461023757806318160ddd1461024c575b600080fd5b34801561019257600080fd5b506101a66101a1366004611998565b6104bb565b60405190151581526020015b60405180910390f35b3480156101c757600080fd5b506101d06104cc565b6040516101b29190611a05565b3480156101e957600080fd5b506101fd6101f8366004611a18565b61055e565b6040516001600160a01b0390911681526020016101b2565b34801561022157600080fd5b50610235610230366004611a4d565b610585565b005b34801561024357600080fd5b506101d061069f565b34801561025857600080fd5b506008545b6040519081526020016101b2565b34801561027757600080fd5b50610235610286366004611a77565b61072d565b34801561029757600080fd5b5061025d6102a6366004611a4d565b61075e565b3480156102b757600080fd5b5061025d600e5481565b3480156102cd57600080fd5b506102356107f4565b3480156102e257600080fd5b506102356102f1366004611a77565b61082b565b34801561030257600080fd5b5061025d610311366004611a18565b610846565b34801561032257600080fd5b506101fd610331366004611a18565b6108d9565b34801561034257600080fd5b5061025d600d5481565b34801561035857600080fd5b5061025d610367366004611ab3565b610939565b34801561037857600080fd5b506102356109bf565b34801561038d57600080fd5b50600b546001600160a01b03166101fd565b3480156103ab57600080fd5b506101d06109d3565b3480156103c057600080fd5b5061025d600c5481565b3480156103d657600080fd5b506102356103e5366004611ace565b6109e2565b3480156103f657600080fd5b50610235610405366004611b20565b6109f1565b34801561041657600080fd5b506101d0610425366004611a18565b610a29565b34801561043657600080fd5b5061025d606481565b34801561044b57600080fd5b506101a661045a366004611bfc565b6001600160a01b03918216600090815260056020908152604080832093909416825291909152205460ff1690565b34801561049457600080fd5b506102356104a3366004611ab3565b610a34565b6102356104b6366004611a4d565b610aaa565b60006104c682610c5f565b92915050565b6060600080546104db90611c2f565b80601f016020809104026020016040519081016040528092919081815260200182805461050790611c2f565b80156105545780601f1061052957610100808354040283529160200191610554565b820191906000526020600020905b81548152906001019060200180831161053757829003601f168201915b5050505050905090565b600061056982610c84565b506000908152600460205260409020546001600160a01b031690565b6000610590826108d9565b9050806001600160a01b0316836001600160a01b0316036106025760405162461bcd60e51b815260206004820152602160248201527f4552433732313a20617070726f76616c20746f2063757272656e74206f776e656044820152603960f91b60648201526084015b60405180910390fd5b336001600160a01b038216148061061e575061061e813361045a565b6106905760405162461bcd60e51b815260206004820152603d60248201527f4552433732313a20617070726f76652063616c6c6572206973206e6f7420746f60448201527f6b656e206f776e6572206f7220617070726f76656420666f7220616c6c00000060648201526084016105f9565b61069a8383610ce3565b505050565b600f80546106ac90611c2f565b80601f01602080910402602001604051908101604052809291908181526020018280546106d890611c2f565b80156107255780601f106106fa57610100808354040283529160200191610725565b820191906000526020600020905b81548152906001019060200180831161070857829003601f168201915b505050505081565b6107373382610d51565b6107535760405162461bcd60e51b81526004016105f990611c69565b61069a838383610dd0565b600061076983610939565b82106107cb5760405162461bcd60e51b815260206004820152602b60248201527f455243373231456e756d657261626c653a206f776e657220696e646578206f7560448201526a74206f6620626f756e647360a81b60648201526084016105f9565b506001600160a01b03919091166000908152600660209081526040808320938352929052205490565b6107fc610f86565b60405133904780156108fc02916000818181858888f19350505050158015610828573d6000803e3d6000fd5b50565b61069a838383604051806020016040528060008152506109f1565b600061085160085490565b82106108b45760405162461bcd60e51b815260206004820152602c60248201527f455243373231456e756d657261626c653a20676c6f62616c20696e646578206f60448201526b7574206f6620626f756e647360a01b60648201526084016105f9565b600882815481106108c7576108c7611cb6565b90600052602060002001549050919050565b6000818152600260205260408120546001600160a01b0316806104c65760405162461bcd60e51b8152602060048201526018602482015277115490cdcc8c4e881a5b9d985b1a59081d1bdad95b88125160421b60448201526064016105f9565b60006001600160a01b0382166109a35760405162461bcd60e51b815260206004820152602960248201527f4552433732313a2061646472657373207a65726f206973206e6f7420612076616044820152683634b21037bbb732b960b91b60648201526084016105f9565b506001600160a01b031660009081526003602052604090205490565b6109c7610f86565b6109d16000610fe0565b565b6060600180546104db90611c2f565b6109ed338383611032565b5050565b6109fb3383610d51565b610a175760405162461bcd60e51b81526004016105f990611c69565b610a2384848484611100565b50505050565b60606104c682611133565b610a3c610f86565b6001600160a01b038116610aa15760405162461bcd60e51b815260206004820152602660248201527f4f776e61626c653a206e6577206f776e657220697320746865207a65726f206160448201526564647265737360d01b60648201526084016105f9565b61082881610fe0565b6064610ab560085490565b1115610ac057600080fd5b600d54610acd9082611ce2565b341015610b135760405162461bcd60e51b81526020600482015260146024820152734e6f7420656e6f756768204554482073656e742160601b60448201526064016105f9565b600e54811115610b8b5760405162461bcd60e51b815260206004820152603860248201527f596f752063616e6e6f74206d696e74206d6f7265207468616e2035204e46547360448201527f20696e20612073696e676c65207472616e73616374696f6e000000000000000060648201526084016105f9565b60005b8181101561069a57600c8054906000610ba683611d01565b9190505550610bb783600c5461123b565b610c4d600c54600f8054610bca90611c2f565b80601f0160208091040260200160405190810160405280929190818152602001828054610bf690611c2f565b8015610c435780601f10610c1857610100808354040283529160200191610c43565b820191906000526020600020905b815481529060010190602001808311610c2657829003601f168201915b5050505050611255565b80610c5781611d01565b915050610b8e565b60006001600160e01b0319821663780e9d6360e01b14806104c657506104c6826112e8565b6000818152600260205260409020546001600160a01b03166108285760405162461bcd60e51b8152602060048201526018602482015277115490cdcc8c4e881a5b9d985b1a59081d1bdad95b88125160421b60448201526064016105f9565b600081815260046020526040902080546001600160a01b0319166001600160a01b0384169081179091558190610d18826108d9565b6001600160a01b03167f8c5be1e5ebec7d5bd14f71427d1e84f3dd0314c0f7b2291e5b200ac8c7c3b92560405160405180910390a45050565b600080610d5d836108d9565b9050806001600160a01b0316846001600160a01b03161480610da457506001600160a01b0380821660009081526005602090815260408083209388168352929052205460ff165b80610dc85750836001600160a01b0316610dbd8461055e565b6001600160a01b0316145b949350505050565b826001600160a01b0316610de3826108d9565b6001600160a01b031614610e475760405162461bcd60e51b815260206004820152602560248201527f4552433732313a207472616e736665722066726f6d20696e636f72726563742060448201526437bbb732b960d91b60648201526084016105f9565b6001600160a01b038216610ea95760405162461bcd60e51b8152602060048201526024808201527f4552433732313a207472616e7366657220746f20746865207a65726f206164646044820152637265737360e01b60648201526084016105f9565b610eb4838383611338565b600081815260046020908152604080832080546001600160a01b03191690556001600160a01b038616835260039091528120805460019290610ef7908490611d1a565b90915550506001600160a01b0382166000908152600360205260408120805460019290610f25908490611d2d565b909155505060008181526002602052604080822080546001600160a01b0319166001600160a01b0386811691821790925591518493918716917fddf252ad1be2c89b69c2b068fc378daa952ba7f163c4a11628f55a4df523b3ef91a4505050565b600b546001600160a01b031633146109d15760405162461bcd60e51b815260206004820181905260248201527f4f776e61626c653a2063616c6c6572206973206e6f7420746865206f776e657260448201526064016105f9565b600b80546001600160a01b038381166001600160a01b0319831681179093556040519116919082907f8be0079c531659141344cd1fd0a4f28419497f9722a3daafe3b4186f6b6457e090600090a35050565b816001600160a01b0316836001600160a01b0316036110935760405162461bcd60e51b815260206004820152601960248201527f4552433732313a20617070726f766520746f2063616c6c65720000000000000060448201526064016105f9565b6001600160a01b03838116600081815260056020908152604080832094871680845294825291829020805460ff191686151590811790915591519182527f17307eab39ab6107e8899845ad3d59bd9653f200f220920489ca2b5937696c31910160405180910390a3505050565b61110b848484610dd0565b61111784848484611343565b610a235760405162461bcd60e51b81526004016105f990611d40565b606061113e82610c84565b6000828152600a60205260408120805461115790611c2f565b80601f016020809104026020016040519081016040528092919081815260200182805461118390611c2f565b80156111d05780601f106111a5576101008083540402835291602001916111d0565b820191906000526020600020905b8154815290600101906020018083116111b357829003601f168201915b5050505050905060006111ee60408051602081019091526000815290565b90508051600003611200575092915050565b81511561123257808260405160200161121a929190611d92565b60405160208183030381529060405292505050919050565b610dc884611444565b6109ed8282604051806020016040528060008152506114b8565b6000828152600260205260409020546001600160a01b03166112d05760405162461bcd60e51b815260206004820152602e60248201527f45524337323155524953746f726167653a2055524920736574206f66206e6f6e60448201526d32bc34b9ba32b73a103a37b5b2b760911b60648201526084016105f9565b6000828152600a6020526040902061069a8282611e0f565b60006001600160e01b031982166380ac58cd60e01b148061131957506001600160e01b03198216635b5e139f60e01b145b806104c657506301ffc9a760e01b6001600160e01b03198316146104c6565b61069a8383836114eb565b60006001600160a01b0384163b1561143957604051630a85bd0160e11b81526001600160a01b0385169063150b7a0290611387903390899088908890600401611ecf565b6020604051808303816000875af19250505080156113c2575060408051601f3d908101601f191682019092526113bf91810190611f0c565b60015b61141f573d8080156113f0576040519150601f19603f3d011682016040523d82523d6000602084013e6113f5565b606091505b5080516000036114175760405162461bcd60e51b81526004016105f990611d40565b805181602001fd5b6001600160e01b031916630a85bd0160e11b149050610dc8565b506001949350505050565b606061144f82610c84565b600061146660408051602081019091526000815290565b9050600081511161148657604051806020016040528060008152506114b1565b80611490846115a3565b6040516020016114a1929190611d92565b6040516020818303038152906040525b9392505050565b6114c283836116a4565b6114cf6000848484611343565b61069a5760405162461bcd60e51b81526004016105f990611d40565b6001600160a01b0383166115465761154181600880546000838152600960205260408120829055600182018355919091527ff3f7a9fe364faab93b216da50a3214154f22a0a2b415b23a84c8169e8b636ee30155565b611569565b816001600160a01b0316836001600160a01b0316146115695761156983826117f2565b6001600160a01b0382166115805761069a8161188f565b826001600160a01b0316826001600160a01b03161461069a5761069a828261193e565b6060816000036115ca5750506040805180820190915260018152600360fc1b602082015290565b8160005b81156115f457806115de81611d01565b91506115ed9050600a83611f3f565b91506115ce565b60008167ffffffffffffffff81111561160f5761160f611b0a565b6040519080825280601f01601f191660200182016040528015611639576020820181803683370190505b5090505b8415610dc85761164e600183611d1a565b915061165b600a86611f53565b611666906030611d2d565b60f81b81838151811061167b5761167b611cb6565b60200101906001600160f81b031916908160001a90535061169d600a86611f3f565b945061163d565b6001600160a01b0382166116fa5760405162461bcd60e51b815260206004820181905260248201527f4552433732313a206d696e7420746f20746865207a65726f206164647265737360448201526064016105f9565b6000818152600260205260409020546001600160a01b03161561175f5760405162461bcd60e51b815260206004820152601c60248201527f4552433732313a20746f6b656e20616c7265616479206d696e7465640000000060448201526064016105f9565b61176b60008383611338565b6001600160a01b0382166000908152600360205260408120805460019290611794908490611d2d565b909155505060008181526002602052604080822080546001600160a01b0319166001600160a01b03861690811790915590518392907fddf252ad1be2c89b69c2b068fc378daa952ba7f163c4a11628f55a4df523b3ef908290a45050565b600060016117ff84610939565b6118099190611d1a565b60008381526007602052604090205490915080821461185c576001600160a01b03841660009081526006602090815260408083208584528252808320548484528184208190558352600790915290208190555b5060009182526007602090815260408084208490556001600160a01b039094168352600681528383209183525290812055565b6008546000906118a190600190611d1a565b600083815260096020526040812054600880549394509092849081106118c9576118c9611cb6565b9060005260206000200154905080600883815481106118ea576118ea611cb6565b600091825260208083209091019290925582815260099091526040808220849055858252812055600880548061192257611922611f67565b6001900381819060005260206000200160009055905550505050565b600061194983610939565b6001600160a01b039093166000908152600660209081526040808320868452825280832085905593825260079052919091209190915550565b6001600160e01b03198116811461082857600080fd5b6000602082840312156119aa57600080fd5b81356114b181611982565b60005b838110156119d05781810151838201526020016119b8565b50506000910152565b600081518084526119f18160208601602086016119b5565b601f01601f19169290920160200192915050565b6020815260006114b160208301846119d9565b600060208284031215611a2a57600080fd5b5035919050565b80356001600160a01b0381168114611a4857600080fd5b919050565b60008060408385031215611a6057600080fd5b611a6983611a31565b946020939093013593505050565b600080600060608486031215611a8c57600080fd5b611a9584611a31565b9250611aa360208501611a31565b9150604084013590509250925092565b600060208284031215611ac557600080fd5b6114b182611a31565b60008060408385031215611ae157600080fd5b611aea83611a31565b915060208301358015158114611aff57600080fd5b809150509250929050565b634e487b7160e01b600052604160045260246000fd5b60008060008060808587031215611b3657600080fd5b611b3f85611a31565b9350611b4d60208601611a31565b925060408501359150606085013567ffffffffffffffff80821115611b7157600080fd5b818701915087601f830112611b8557600080fd5b813581811115611b9757611b97611b0a565b604051601f8201601f19908116603f01168101908382118183101715611bbf57611bbf611b0a565b816040528281528a6020848701011115611bd857600080fd5b82602086016020830137600060208483010152809550505050505092959194509250565b60008060408385031215611c0f57600080fd5b611c1883611a31565b9150611c2660208401611a31565b90509250929050565b600181811c90821680611c4357607f821691505b602082108103611c6357634e487b7160e01b600052602260045260246000fd5b50919050565b6020808252602d908201527f4552433732313a2063616c6c6572206973206e6f7420746f6b656e206f776e6560408201526c1c881bdc88185c1c1c9bdd9959609a1b606082015260800190565b634e487b7160e01b600052603260045260246000fd5b634e487b7160e01b600052601160045260246000fd5b6000816000190483118215151615611cfc57611cfc611ccc565b500290565b600060018201611d1357611d13611ccc565b5060010190565b818103818111156104c6576104c6611ccc565b808201808211156104c6576104c6611ccc565b60208082526032908201527f4552433732313a207472616e7366657220746f206e6f6e20455243373231526560408201527131b2b4bb32b91034b6b83632b6b2b73a32b960711b606082015260800190565b60008351611da48184602088016119b5565b835190830190611db88183602088016119b5565b01949350505050565b601f82111561069a57600081815260208120601f850160051c81016020861015611de85750805b601f850160051c820191505b81811015611e0757828155600101611df4565b505050505050565b815167ffffffffffffffff811115611e2957611e29611b0a565b611e3d81611e378454611c2f565b84611dc1565b602080601f831160018114611e725760008415611e5a5750858301515b600019600386901b1c1916600185901b178555611e07565b600085815260208120601f198616915b82811015611ea157888601518255948401946001909101908401611e82565b5085821015611ebf5787850151600019600388901b60f8161c191681555b5050505050600190811b01905550565b6001600160a01b0385811682528416602082015260408101839052608060608201819052600090611f02908301846119d9565b9695505050505050565b600060208284031215611f1e57600080fd5b81516114b181611982565b634e487b7160e01b600052601260045260246000fd5b600082611f4e57611f4e611f29565b500490565b600082611f6257611f62611f29565b500690565b634e487b7160e01b600052603160045260246000fdfea2646970667358221220979e85785a6ea9daf59d50f96992f7107176ad34b51167d46d69102b5e2b8bae64736f6c6343000810003368747470733a2f2f697066732e696f2f697066732f516d54596e54365a436139476b653669456831517159675862625354344354654b48626f55525a37565955373941",
    "linkReferences": {}
  },
  "methodIdentifiers": {
    "URI()": "1141d7de",
    "approve(address,uint256)": "095ea7b3",
    "balanceOf(address)": "70a08231",
    "getApproved(uint256)": "081812fc",
    "isApprovedForAll(address,address)": "e985e9c5",
    "maxPerTxn()": "3cb51994",
    "maxSupply()": "d5abeb01",
    "mintItem(address,uint256)": "f6a4a3fd",
    "mintPrice()": "6817c76c",
    "name()": "06fdde03",
    "owner()": "8da5cb5b",
    "ownerOf(uint256)": "6352211e",
    "renounceOwnership()": "715018a6",
    "safeTransferFrom(address,address,uint256)": "42842e0e",
    "safeTransferFrom(address,address,uint256,bytes)": "b88d4fde",
    "setApprovalForAll(address,bool)": "a22cb465",
    "supportsInterface(bytes4)": "01ffc9a7",
    "symbol()": "95d89b41",
    "tokenByIndex(uint256)": "4f6ccce7",
    "tokenIdCounter()": "98bdf6f5",
    "tokenOfOwnerByIndex(address,uint256)": "2f745c59",
    "tokenURI(uint256)": "c87b56dd",
    "totalSupply()": "18160ddd",
    "transferFrom(address,address,uint256)": "23b872dd",
    "transferOwnership(address)": "f2fde38b",
    "withdraw()": "3ccfd60b"
  },
  "id": 13
}