{
  "abi": [
    {
      "inputs": [],
      "stateMutability": "nonpayable",
      "type": "constructor"
    },
    {
      "anonymous": false,
      "inputs": [
        {
          "indexed": true,
          "internalType": "address",
          "name": "owner",
          "type": "address"
        },
        {
          "indexed": true,
          "internalType": "address",
          "name": "approved",
          "type": "address"
        },
        {
          "indexed": true,
          "internalType": "uint256",
          "name": "tokenId",
          "type": "uint256"
        }
      ],
      "name": "Approval",
      "type": "event"
    },
    {
      "anonymous": false,
      "inputs": [
        {
          "indexed": true,
          "internalType": "address",
          "name": "owner",
          "type": "address"
        },
        {
          "indexed": true,
          "internalType": "address",
          "name": "operator",
          "type": "address"
        },
        {
          "indexed": false,
          "internalType": "bool",
          "name": "approved",
          "type": "bool"
        }
      ],
      "name": "ApprovalForAll",
      "type": "event"
    },
    {
      "anonymous": false,
      "inputs": [
        {
          "indexed": true,
          "internalType": "address",
          "name": "previousOwner",
          "type": "address"
        },
        {
          "indexed": true,
          "internalType": "address",
          "name": "newOwner",
          "type": "address"
        }
      ],
      "name": "OwnershipTransferred",
      "type": "event"
    },
    {
      "anonymous": false,
      "inputs": [
        {
          "indexed": true,
          "internalType": "address",
          "name": "from",
          "type": "address"
        },
        {
          "indexed": true,
          "internalType": "address",
          "name": "to",
          "type": "address"
        },
        {
          "indexed": true,
          "internalType": "uint256",
          "name": "tokenId",
          "type": "uint256"
        }
      ],
      "name": "Transfer",
      "type": "event"
    },
    {
      "inputs": [],
      "name": "MAX_PER_TXN",
      "outputs": [
        {
          "internalType": "uint256",
          "name": "",
          "type": "uint256"
        }
      ],
      "stateMutability": "view",
      "type": "function"
    },
    {
      "inputs": [],
      "name": "MAX_SUPPLY",
      "outputs": [
        {
          "internalType": "uint256",
          "name": "",
          "type": "uint256"
        }
      ],
      "stateMutability": "view",
      "type": "function"
    },
    {
      "inputs": [],
      "name": "MINT_PRICE",
      "outputs": [
        {
          "internalType": "uint256",
          "name": "",
          "type": "uint256"
        }
      ],
      "stateMutability": "view",
      "type": "function"
    },
    {
      "inputs": [
        {
          "internalType": "address",
          "name": "to",
          "type": "address"
        },
        {
          "internalType": "uint256",
          "name": "tokenId",
          "type": "uint256"
        }
      ],
      "name": "approve",
      "outputs": [],
      "stateMutability": "nonpayable",
      "type": "function"
    },
    {
      "inputs": [
        {
          "internalType": "address",
          "name": "owner",
          "type": "address"
        }
      ],
      "name": "balanceOf",
      "outputs": [
        {
          "internalType": "uint256",
          "name": "",
          "type": "uint256"
        }
      ],
      "stateMutability": "view",
      "type": "function"
    },
    {
      "inputs": [],
      "name": "baseTokenURI",
      "outputs": [
        {
          "internalType": "string",
          "name": "",
          "type": "string"
        }
      ],
      "stateMutability": "view",
      "type": "function"
    },
    {
      "inputs": [
        {
          "internalType": "uint256",
          "name": "tokenId",
          "type": "uint256"
        }
      ],
      "name": "getApproved",
      "outputs": [
        {
          "internalType": "address",
          "name": "",
          "type": "address"
        }
      ],
      "stateMutability": "view",
      "type": "function"
    },
    {
      "inputs": [
        {
          "internalType": "address",
          "name": "owner",
          "type": "address"
        },
        {
          "internalType": "address",
          "name": "operator",
          "type": "address"
        }
      ],
      "name": "isApprovedForAll",
      "outputs": [
        {
          "internalType": "bool",
          "name": "",
          "type": "bool"
        }
      ],
      "stateMutability": "view",
      "type": "function"
    },
    {
      "inputs": [
        {
          "internalType": "uint256",
          "name": "_amount",
          "type": "uint256"
        }
      ],
      "name": "mintItem",
      "outputs": [],
      "stateMutability": "payable",
      "type": "function"
    },
    {
      "inputs": [],
      "name": "mintItem",
      "outputs": [],
      "stateMutability": "payable",
      "type": "function"
    },
    {
      "inputs": [],
      "name": "name",
      "outputs": [
        {
          "internalType": "string",
          "name": "",
          "type": "string"
        }
      ],
      "stateMutability": "view",
      "type": "function"
    },
    {
      "inputs": [],
      "name": "owner",
      "outputs": [
        {
          "internalType": "address",
          "name": "",
          "type": "address"
        }
      ],
      "stateMutability": "view",
      "type": "function"
    },
    {
      "inputs": [
        {
          "internalType": "uint256",
          "name": "tokenId",
          "type": "uint256"
        }
      ],
      "name": "ownerOf",
      "outputs": [
        {
          "internalType": "address",
          "name": "",
          "type": "address"
        }
      ],
      "stateMutability": "view",
      "type": "function"
    },
    {
      "inputs": [],
      "name": "renounceOwnership",
      "outputs": [],
      "stateMutability": "nonpayable",
      "type": "function"
    },
    {
      "inputs": [
        {
          "internalType": "address",
          "name": "from",
          "type": "address"
        },
        {
          "internalType": "address",
          "name": "to",
          "type": "address"
        },
        {
          "internalType": "uint256",
          "name": "tokenId",
          "type": "uint256"
        }
      ],
      "name": "safeTransferFrom",
      "outputs": [],
      "stateMutability": "nonpayable",
      "type": "function"
    },
    {
      "inputs": [
        {
          "internalType": "address",
          "name": "from",
          "type": "address"
        },
        {
          "internalType": "address",
          "name": "to",
          "type": "address"
        },
        {
          "internalType": "uint256",
          "name": "tokenId",
          "type": "uint256"
        },
        {
          "internalType": "bytes",
          "name": "data",
          "type": "bytes"
        }
      ],
      "name": "safeTransferFrom",
      "outputs": [],
      "stateMutability": "nonpayable",
      "type": "function"
    },
    {
      "inputs": [
        {
          "internalType": "address",
          "name": "operator",
          "type": "address"
        },
        {
          "internalType": "bool",
          "name": "approved",
          "type": "bool"
        }
      ],
      "name": "setApprovalForAll",
      "outputs": [],
      "stateMutability": "nonpayable",
      "type": "function"
    },
    {
      "inputs": [
        {
          "internalType": "string",
          "name": "_baseTokenURI",
          "type": "string"
        }
      ],
      "name": "setBaseURI",
      "outputs": [],
      "stateMutability": "nonpayable",
      "type": "function"
    },
    {
      "inputs": [
        {
          "internalType": "bytes4",
          "name": "interfaceId",
          "type": "bytes4"
        }
      ],
      "name": "supportsInterface",
      "outputs": [
        {
          "internalType": "bool",
          "name": "",
          "type": "bool"
        }
      ],
      "stateMutability": "view",
      "type": "function"
    },
    {
      "inputs": [],
      "name": "symbol",
      "outputs": [
        {
          "internalType": "string",
          "name": "",
          "type": "string"
        }
      ],
      "stateMutability": "view",
      "type": "function"
    },
    {
      "inputs": [
        {
          "internalType": "uint256",
          "name": "index",
          "type": "uint256"
        }
      ],
      "name": "tokenByIndex",
      "outputs": [
        {
          "internalType": "uint256",
          "name": "",
          "type": "uint256"
        }
      ],
      "stateMutability": "view",
      "type": "function"
    },
    {
      "inputs": [],
      "name": "tokenIdCounter",
      "outputs": [
        {
          "internalType": "uint256",
          "name": "",
          "type": "uint256"
        }
      ],
      "stateMutability": "view",
      "type": "function"
    },
    {
      "inputs": [
        {
          "internalType": "address",
          "name": "owner",
          "type": "address"
        },
        {
          "internalType": "uint256",
          "name": "index",
          "type": "uint256"
        }
      ],
      "name": "tokenOfOwnerByIndex",
      "outputs": [
        {
          "internalType": "uint256",
          "name": "",
          "type": "uint256"
        }
      ],
      "stateMutability": "view",
      "type": "function"
    },
    {
      "inputs": [
        {
          "internalType": "uint256",
          "name": "tokenId",
          "type": "uint256"
        }
      ],
      "name": "tokenURI",
      "outputs": [
        {
          "internalType": "string",
          "name": "",
          "type": "string"
        }
      ],
      "stateMutability": "view",
      "type": "function"
    },
    {
      "inputs": [],
      "name": "totalSupply",
      "outputs": [
        {
          "internalType": "uint256",
          "name": "",
          "type": "uint256"
        }
      ],
      "stateMutability": "view",
      "type": "function"
    },
    {
      "inputs": [
        {
          "internalType": "address",
          "name": "from",
          "type": "address"
        },
        {
          "internalType": "address",
          "name": "to",
          "type": "address"
        },
        {
          "internalType": "uint256",
          "name": "tokenId",
          "type": "uint256"
        }
      ],
      "name": "transferFrom",
      "outputs": [],
      "stateMutability": "nonpayable",
      "type": "function"
    },
    {
      "inputs": [
        {
          "internalType": "address",
          "name": "newOwner",
          "type": "address"
        }
      ],
      "name": "transferOwnership",
      "outputs": [],
      "stateMutability": "nonpayable",
      "type": "function"
    },
    {
      "inputs": [],
      "name": "withdraw",
      "outputs": [],
      "stateMutability": "payable",
      "type": "function"
    }
  ],
  "bytecode": {
    "object": "0x6000600c5560e06040526035608081815290620022d660a039600d90620000279082620001b6565b503480156200003557600080fd5b506040518060400160405280600c81526020016b4172636164652047616d657360a01b815250604051806040016040528060048152602001634152434760e01b8152508160009081620000899190620001b6565b506001620000988282620001b6565b505050620000b5620000af620000bb60201b60201c565b620000bf565b62000282565b3390565b600b80546001600160a01b038381166001600160a01b0319831681179093556040519116919082907f8be0079c531659141344cd1fd0a4f28419497f9722a3daafe3b4186f6b6457e090600090a35050565b634e487b7160e01b600052604160045260246000fd5b600181811c908216806200013c57607f821691505b6020821081036200015d57634e487b7160e01b600052602260045260246000fd5b50919050565b601f821115620001b157600081815260208120601f850160051c810160208610156200018c5750805b601f850160051c820191505b81811015620001ad5782815560010162000198565b5050505b505050565b81516001600160401b03811115620001d257620001d262000111565b620001ea81620001e3845462000127565b8462000163565b602080601f831160018114620002225760008415620002095750858301515b600019600386901b1c1916600185901b178555620001ad565b600085815260208120601f198616915b82811015620002535788860151825594840194600190910190840162000232565b5085821015620002725787850151600019600388901b60f8161c191681555b5050505050600190811b01905550565b61204480620002926000396000f3fe6080604052600436106101b75760003560e01c80636352211e116100ec578063b88d4fde1161008a578063d547cfb711610064578063d547cfb71461048a578063e985e9c51461049f578063eb93406b146104e8578063f2fde38b146104f057600080fd5b8063b88d4fde1461042f578063c002d23d1461044f578063c87b56dd1461046a57600080fd5b80638da5cb5b116100c65780638da5cb5b146103c657806395d89b41146103e457806398bdf6f5146103f9578063a22cb4651461040f57600080fd5b80636352211e1461037157806370a0823114610391578063715018a6146103b157600080fd5b80632f745c591161015957806342842e0e1161013357806342842e0e146102fc5780634f6ccce71461031c57806351b96d921461033c57806355f804b31461035157600080fd5b80632f745c59146102bf57806332cb6b0c146102df5780633ccfd60b146102f457600080fd5b8063095ea7b311610195578063095ea7b31461024b57806317fb85941461026d57806318160ddd1461028057806323b872dd1461029f57600080fd5b806301ffc9a7146101bc57806306fdde03146101f1578063081812fc14610213575b600080fd5b3480156101c857600080fd5b506101dc6101d73660046119c9565b610510565b60405190151581526020015b60405180910390f35b3480156101fd57600080fd5b50610206610521565b6040516101e89190611a36565b34801561021f57600080fd5b5061023361022e366004611a49565b6105b3565b6040516001600160a01b0390911681526020016101e8565b34801561025757600080fd5b5061026b610266366004611a7e565b6105da565b005b61026b61027b366004611a49565b6106f4565b34801561028c57600080fd5b506008545b6040519081526020016101e8565b3480156102ab57600080fd5b5061026b6102ba366004611aa8565b61086b565b3480156102cb57600080fd5b506102916102da366004611a7e565b61089c565b3480156102eb57600080fd5b50610291606481565b61026b610932565b34801561030857600080fd5b5061026b610317366004611aa8565b610a13565b34801561032857600080fd5b50610291610337366004611a49565b610a2e565b34801561034857600080fd5b50610291600581565b34801561035d57600080fd5b5061026b61036c366004611b70565b610ac1565b34801561037d57600080fd5b5061023361038c366004611a49565b610ad5565b34801561039d57600080fd5b506102916103ac366004611bb9565b610b35565b3480156103bd57600080fd5b5061026b610bbb565b3480156103d257600080fd5b50600b546001600160a01b0316610233565b3480156103f057600080fd5b50610206610bcf565b34801561040557600080fd5b50610291600c5481565b34801561041b57600080fd5b5061026b61042a366004611bd4565b610bde565b34801561043b57600080fd5b5061026b61044a366004611c10565b610be9565b34801561045b57600080fd5b50610291662386f26fc1000081565b34801561047657600080fd5b50610206610485366004611a49565b610c21565b34801561049657600080fd5b50610206610c2c565b3480156104ab57600080fd5b506101dc6104ba366004611c8c565b6001600160a01b03918216600090815260056020908152604080832093909416825291909152205460ff1690565b61026b610cba565b3480156104fc57600080fd5b5061026b61050b366004611bb9565b610cc4565b600061051b82610d3d565b92915050565b60606000805461053090611cbf565b80601f016020809104026020016040519081016040528092919081815260200182805461055c90611cbf565b80156105a95780601f1061057e576101008083540402835291602001916105a9565b820191906000526020600020905b81548152906001019060200180831161058c57829003601f168201915b5050505050905090565b60006105be82610d62565b506000908152600460205260409020546001600160a01b031690565b60006105e582610ad5565b9050806001600160a01b0316836001600160a01b0316036106575760405162461bcd60e51b815260206004820152602160248201527f4552433732313a20617070726f76616c20746f2063757272656e74206f776e656044820152603960f91b60648201526084015b60405180910390fd5b336001600160a01b0382161480610673575061067381336104ba565b6106e55760405162461bcd60e51b815260206004820152603e60248201527f4552433732313a20617070726f76652063616c6c6572206973206e6f7420746f60448201527f6b656e206f776e6572206e6f7220617070726f76656420666f7220616c6c0000606482015260840161064e565b6106ef8383610dc1565b505050565b610705662386f26fc1000082611d0f565b34101561074b5760405162461bcd60e51b81526020600482015260146024820152734e6f7420656e6f756768204554482073656e742160601b604482015260640161064e565b606461075660085490565b106107b25760405162461bcd60e51b815260206004820152602660248201527f4d6178696d756d20737570706c79206f662031303020686173206265656e2072604482015265195858da195960d21b606482015260840161064e565b60058111156108295760405162461bcd60e51b815260206004820152603860248201527f596f752063616e6e6f74206d696e74206d6f7265207468616e2035204e46547360448201527f20696e20612073696e676c65207472616e73616374696f6e0000000000000000606482015260840161064e565b60005b8181101561086757600c805490600061084483611d2e565b919050555061085533600c54610e2f565b8061085f81611d2e565b91505061082c565b5050565b6108753382610e49565b6108915760405162461bcd60e51b815260040161064e90611d47565b6106ef838383610ec8565b60006108a783610b35565b82106109095760405162461bcd60e51b815260206004820152602b60248201527f455243373231456e756d657261626c653a206f776e657220696e646578206f7560448201526a74206f6620626f756e647360a81b606482015260840161064e565b506001600160a01b03919091166000908152600660209081526040808320938352929052205490565b61093a61106f565b47806109885760405162461bcd60e51b815260206004820152601960248201527f4e6f206574686572206c65667420746f20776974686472617700000000000000604482015260640161064e565b604051600090339047908381818185875af1925050503d80600081146109ca576040519150601f19603f3d011682016040523d82523d6000602084013e6109cf565b606091505b50509050806108675760405162461bcd60e51b815260206004820152601060248201526f2a3930b739b332b9103330b4b632b21760811b604482015260640161064e565b6106ef83838360405180602001604052806000815250610be9565b6000610a3960085490565b8210610a9c5760405162461bcd60e51b815260206004820152602c60248201527f455243373231456e756d657261626c653a20676c6f62616c20696e646578206f60448201526b7574206f6620626f756e647360a01b606482015260840161064e565b60088281548110610aaf57610aaf611d95565b90600052602060002001549050919050565b610ac961106f565b600d6108678282611df9565b6000818152600260205260408120546001600160a01b03168061051b5760405162461bcd60e51b8152602060048201526018602482015277115490cdcc8c4e881a5b9d985b1a59081d1bdad95b88125160421b604482015260640161064e565b60006001600160a01b038216610b9f5760405162461bcd60e51b815260206004820152602960248201527f4552433732313a2061646472657373207a65726f206973206e6f7420612076616044820152683634b21037bbb732b960b91b606482015260840161064e565b506001600160a01b031660009081526003602052604090205490565b610bc361106f565b610bcd60006110c9565b565b60606001805461053090611cbf565b61086733838361111b565b610bf33383610e49565b610c0f5760405162461bcd60e51b815260040161064e90611d47565b610c1b848484846111e9565b50505050565b606061051b8261121c565b600d8054610c3990611cbf565b80601f0160208091040260200160405190810160405280929190818152602001828054610c6590611cbf565b8015610cb25780601f10610c8757610100808354040283529160200191610cb2565b820191906000526020600020905b815481529060010190602001808311610c9557829003601f168201915b505050505081565b610bcd60016106f4565b610ccc61106f565b6001600160a01b038116610d315760405162461bcd60e51b815260206004820152602660248201527f4f776e61626c653a206e6577206f776e657220697320746865207a65726f206160448201526564647265737360d01b606482015260840161064e565b610d3a816110c9565b50565b60006001600160e01b0319821663780e9d6360e01b148061051b575061051b82611317565b6000818152600260205260409020546001600160a01b0316610d3a5760405162461bcd60e51b8152602060048201526018602482015277115490cdcc8c4e881a5b9d985b1a59081d1bdad95b88125160421b604482015260640161064e565b600081815260046020526040902080546001600160a01b0319166001600160a01b0384169081179091558190610df682610ad5565b6001600160a01b03167f8c5be1e5ebec7d5bd14f71427d1e84f3dd0314c0f7b2291e5b200ac8c7c3b92560405160405180910390a45050565b610867828260405180602001604052806000815250611367565b600080610e5583610ad5565b9050806001600160a01b0316846001600160a01b03161480610e9c57506001600160a01b0380821660009081526005602090815260408083209388168352929052205460ff165b80610ec05750836001600160a01b0316610eb5846105b3565b6001600160a01b0316145b949350505050565b826001600160a01b0316610edb82610ad5565b6001600160a01b031614610f3f5760405162461bcd60e51b815260206004820152602560248201527f4552433732313a207472616e736665722066726f6d20696e636f72726563742060448201526437bbb732b960d91b606482015260840161064e565b6001600160a01b038216610fa15760405162461bcd60e51b8152602060048201526024808201527f4552433732313a207472616e7366657220746f20746865207a65726f206164646044820152637265737360e01b606482015260840161064e565b610fac83838361139a565b610fb7600082610dc1565b6001600160a01b0383166000908152600360205260408120805460019290610fe0908490611eb9565b90915550506001600160a01b038216600090815260036020526040812080546001929061100e908490611ecc565b909155505060008181526002602052604080822080546001600160a01b0319166001600160a01b0386811691821790925591518493918716917fddf252ad1be2c89b69c2b068fc378daa952ba7f163c4a11628f55a4df523b3ef91a4505050565b600b546001600160a01b03163314610bcd5760405162461bcd60e51b815260206004820181905260248201527f4f776e61626c653a2063616c6c6572206973206e6f7420746865206f776e6572604482015260640161064e565b600b80546001600160a01b038381166001600160a01b0319831681179093556040519116919082907f8be0079c531659141344cd1fd0a4f28419497f9722a3daafe3b4186f6b6457e090600090a35050565b816001600160a01b0316836001600160a01b03160361117c5760405162461bcd60e51b815260206004820152601960248201527f4552433732313a20617070726f766520746f2063616c6c657200000000000000604482015260640161064e565b6001600160a01b03838116600081815260056020908152604080832094871680845294825291829020805460ff191686151590811790915591519182527f17307eab39ab6107e8899845ad3d59bd9653f200f220920489ca2b5937696c31910160405180910390a3505050565b6111f4848484610ec8565b611200848484846113a5565b610c1b5760405162461bcd60e51b815260040161064e90611edf565b606061122782610d62565b6000828152600a60205260408120805461124090611cbf565b80601f016020809104026020016040519081016040528092919081815260200182805461126c90611cbf565b80156112b95780601f1061128e576101008083540402835291602001916112b9565b820191906000526020600020905b81548152906001019060200180831161129c57829003601f168201915b5050505050905060006112ca6114a6565b905080516000036112dc575092915050565b81511561130e5780826040516020016112f6929190611f31565b60405160208183030381529060405292505050919050565b610ec0846114b5565b60006001600160e01b031982166380ac58cd60e01b148061134857506001600160e01b03198216635b5e139f60e01b145b8061051b57506301ffc9a760e01b6001600160e01b031983161461051b565b611371838361151c565b61137e60008484846113a5565b6106ef5760405162461bcd60e51b815260040161064e90611edf565b6106ef83838361166a565b60006001600160a01b0384163b1561149b57604051630a85bd0160e11b81526001600160a01b0385169063150b7a02906113e9903390899088908890600401611f60565b6020604051808303816000875af1925050508015611424575060408051601f3d908101601f1916820190925261142191810190611f9d565b60015b611481573d808015611452576040519150601f19603f3d011682016040523d82523d6000602084013e611457565b606091505b5080516000036114795760405162461bcd60e51b815260040161064e90611edf565b805181602001fd5b6001600160e01b031916630a85bd0160e11b149050610ec0565b506001949350505050565b6060600d805461053090611cbf565b60606114c082610d62565b60006114ca6114a6565b905060008151116114ea5760405180602001604052806000815250611515565b806114f484611722565b604051602001611505929190611f31565b6040516020818303038152906040525b9392505050565b6001600160a01b0382166115725760405162461bcd60e51b815260206004820181905260248201527f4552433732313a206d696e7420746f20746865207a65726f2061646472657373604482015260640161064e565b6000818152600260205260409020546001600160a01b0316156115d75760405162461bcd60e51b815260206004820152601c60248201527f4552433732313a20746f6b656e20616c7265616479206d696e74656400000000604482015260640161064e565b6115e36000838361139a565b6001600160a01b038216600090815260036020526040812080546001929061160c908490611ecc565b909155505060008181526002602052604080822080546001600160a01b0319166001600160a01b03861690811790915590518392907fddf252ad1be2c89b69c2b068fc378daa952ba7f163c4a11628f55a4df523b3ef908290a45050565b6001600160a01b0383166116c5576116c081600880546000838152600960205260408120829055600182018355919091527ff3f7a9fe364faab93b216da50a3214154f22a0a2b415b23a84c8169e8b636ee30155565b6116e8565b816001600160a01b0316836001600160a01b0316146116e8576116e88382611823565b6001600160a01b0382166116ff576106ef816118c0565b826001600160a01b0316826001600160a01b0316146106ef576106ef828261196f565b6060816000036117495750506040805180820190915260018152600360fc1b602082015290565b8160005b8115611773578061175d81611d2e565b915061176c9050600a83611fd0565b915061174d565b60008167ffffffffffffffff81111561178e5761178e611ae4565b6040519080825280601f01601f1916602001820160405280156117b8576020820181803683370190505b5090505b8415610ec0576117cd600183611eb9565b91506117da600a86611fe4565b6117e5906030611ecc565b60f81b8183815181106117fa576117fa611d95565b60200101906001600160f81b031916908160001a90535061181c600a86611fd0565b94506117bc565b6000600161183084610b35565b61183a9190611eb9565b60008381526007602052604090205490915080821461188d576001600160a01b03841660009081526006602090815260408083208584528252808320548484528184208190558352600790915290208190555b5060009182526007602090815260408084208490556001600160a01b039094168352600681528383209183525290812055565b6008546000906118d290600190611eb9565b600083815260096020526040812054600880549394509092849081106118fa576118fa611d95565b90600052602060002001549050806008838154811061191b5761191b611d95565b600091825260208083209091019290925582815260099091526040808220849055858252812055600880548061195357611953611ff8565b6001900381819060005260206000200160009055905550505050565b600061197a83610b35565b6001600160a01b039093166000908152600660209081526040808320868452825280832085905593825260079052919091209190915550565b6001600160e01b031981168114610d3a57600080fd5b6000602082840312156119db57600080fd5b8135611515816119b3565b60005b83811015611a015781810151838201526020016119e9565b50506000910152565b60008151808452611a228160208601602086016119e6565b601f01601f19169290920160200192915050565b6020815260006115156020830184611a0a565b600060208284031215611a5b57600080fd5b5035919050565b80356001600160a01b0381168114611a7957600080fd5b919050565b60008060408385031215611a9157600080fd5b611a9a83611a62565b946020939093013593505050565b600080600060608486031215611abd57600080fd5b611ac684611a62565b9250611ad460208501611a62565b9150604084013590509250925092565b634e487b7160e01b600052604160045260246000fd5b600067ffffffffffffffff80841115611b1557611b15611ae4565b604051601f8501601f19908116603f01168101908282118183101715611b3d57611b3d611ae4565b81604052809350858152868686011115611b5657600080fd5b858560208301376000602087830101525050509392505050565b600060208284031215611b8257600080fd5b813567ffffffffffffffff811115611b9957600080fd5b8201601f81018413611baa57600080fd5b610ec084823560208401611afa565b600060208284031215611bcb57600080fd5b61151582611a62565b60008060408385031215611be757600080fd5b611bf083611a62565b915060208301358015158114611c0557600080fd5b809150509250929050565b60008060008060808587031215611c2657600080fd5b611c2f85611a62565b9350611c3d60208601611a62565b925060408501359150606085013567ffffffffffffffff811115611c6057600080fd5b8501601f81018713611c7157600080fd5b611c8087823560208401611afa565b91505092959194509250565b60008060408385031215611c9f57600080fd5b611ca883611a62565b9150611cb660208401611a62565b90509250929050565b600181811c90821680611cd357607f821691505b602082108103611cf357634e487b7160e01b600052602260045260246000fd5b50919050565b634e487b7160e01b600052601160045260246000fd5b6000816000190483118215151615611d2957611d29611cf9565b500290565b600060018201611d4057611d40611cf9565b5060010190565b6020808252602e908201527f4552433732313a2063616c6c6572206973206e6f7420746f6b656e206f776e6560408201526d1c881b9bdc88185c1c1c9bdd995960921b606082015260800190565b634e487b7160e01b600052603260045260246000fd5b601f8211156106ef57600081815260208120601f850160051c81016020861015611dd25750805b601f850160051c820191505b81811015611df157828155600101611dde565b505050505050565b815167ffffffffffffffff811115611e1357611e13611ae4565b611e2781611e218454611cbf565b84611dab565b602080601f831160018114611e5c5760008415611e445750858301515b600019600386901b1c1916600185901b178555611df1565b600085815260208120601f198616915b82811015611e8b57888601518255948401946001909101908401611e6c565b5085821015611ea95787850151600019600388901b60f8161c191681555b5050505050600190811b01905550565b8181038181111561051b5761051b611cf9565b8082018082111561051b5761051b611cf9565b60208082526032908201527f4552433732313a207472616e7366657220746f206e6f6e20455243373231526560408201527131b2b4bb32b91034b6b83632b6b2b73a32b960711b606082015260800190565b60008351611f438184602088016119e6565b835190830190611f578183602088016119e6565b01949350505050565b6001600160a01b0385811682528416602082015260408101839052608060608201819052600090611f9390830184611a0a565b9695505050505050565b600060208284031215611faf57600080fd5b8151611515816119b3565b634e487b7160e01b600052601260045260246000fd5b600082611fdf57611fdf611fba565b500490565b600082611ff357611ff3611fba565b500690565b634e487b7160e01b600052603160045260246000fdfea2646970667358221220ae5eb7e53184044ccb0206b1b713ffb21dd973272b54f4d5d67361770bf081f964736f6c63430008100033697066733a2f2f516d54596e54365a436139476b653669456831517159675862625354344354654b48626f55525a37565955373941",
    "linkReferences": {}
  },
  "methodIdentifiers": {
    "MAX_PER_TXN()": "51b96d92",
    "MAX_SUPPLY()": "32cb6b0c",
    "MINT_PRICE()": "c002d23d",
    "approve(address,uint256)": "095ea7b3",
    "balanceOf(address)": "70a08231",
    "baseTokenURI()": "d547cfb7",
    "getApproved(uint256)": "081812fc",
    "isApprovedForAll(address,address)": "e985e9c5",
    "mintItem()": "eb93406b",
    "mintItem(uint256)": "17fb8594",
    "name()": "06fdde03",
    "owner()": "8da5cb5b",
    "ownerOf(uint256)": "6352211e",
    "renounceOwnership()": "715018a6",
    "safeTransferFrom(address,address,uint256)": "42842e0e",
    "safeTransferFrom(address,address,uint256,bytes)": "b88d4fde",
    "setApprovalForAll(address,bool)": "a22cb465",
    "setBaseURI(string)": "55f804b3",
    "supportsInterface(bytes4)": "01ffc9a7",
    "symbol()": "95d89b41",
    "tokenByIndex(uint256)": "4f6ccce7",
    "tokenIdCounter()": "98bdf6f5",
    "tokenOfOwnerByIndex(address,uint256)": "2f745c59",
    "tokenURI(uint256)": "c87b56dd",
    "totalSupply()": "18160ddd",
    "transferFrom(address,address,uint256)": "23b872dd",
    "transferOwnership(address)": "f2fde38b",
    "withdraw()": "3ccfd60b"
  },
  "id": 0
}