{
  "abi": [
    {
      "inputs": [],
      "stateMutability": "nonpayable",
      "type": "constructor"
    },
    {
      "anonymous": false,
      "inputs": [
        {
          "indexed": true,
          "internalType": "address",
          "name": "owner",
          "type": "address"
        },
        {
          "indexed": true,
          "internalType": "address",
          "name": "approved",
          "type": "address"
        },
        {
          "indexed": true,
          "internalType": "uint256",
          "name": "tokenId",
          "type": "uint256"
        }
      ],
      "name": "Approval",
      "type": "event"
    },
    {
      "anonymous": false,
      "inputs": [
        {
          "indexed": true,
          "internalType": "address",
          "name": "owner",
          "type": "address"
        },
        {
          "indexed": true,
          "internalType": "address",
          "name": "operator",
          "type": "address"
        },
        {
          "indexed": false,
          "internalType": "bool",
          "name": "approved",
          "type": "bool"
        }
      ],
      "name": "ApprovalForAll",
      "type": "event"
    },
    {
      "anonymous": false,
      "inputs": [
        {
          "indexed": true,
          "internalType": "address",
          "name": "previousOwner",
          "type": "address"
        },
        {
          "indexed": true,
          "internalType": "address",
          "name": "newOwner",
          "type": "address"
        }
      ],
      "name": "OwnershipTransferred",
      "type": "event"
    },
    {
      "anonymous": false,
      "inputs": [
        {
          "indexed": true,
          "internalType": "address",
          "name": "from",
          "type": "address"
        },
        {
          "indexed": true,
          "internalType": "address",
          "name": "to",
          "type": "address"
        },
        {
          "indexed": true,
          "internalType": "uint256",
          "name": "tokenId",
          "type": "uint256"
        }
      ],
      "name": "Transfer",
      "type": "event"
    },
    {
      "inputs": [],
      "name": "MAX_PER_TXN",
      "outputs": [
        {
          "internalType": "uint256",
          "name": "",
          "type": "uint256"
        }
      ],
      "stateMutability": "view",
      "type": "function"
    },
    {
      "inputs": [],
      "name": "MAX_SUPPLY",
      "outputs": [
        {
          "internalType": "uint256",
          "name": "",
          "type": "uint256"
        }
      ],
      "stateMutability": "view",
      "type": "function"
    },
    {
      "inputs": [],
      "name": "MINT_PRICE",
      "outputs": [
        {
          "internalType": "uint256",
          "name": "",
          "type": "uint256"
        }
      ],
      "stateMutability": "view",
      "type": "function"
    },
    {
      "inputs": [
        {
          "internalType": "address",
          "name": "to",
          "type": "address"
        },
        {
          "internalType": "uint256",
          "name": "tokenId",
          "type": "uint256"
        }
      ],
      "name": "approve",
      "outputs": [],
      "stateMutability": "nonpayable",
      "type": "function"
    },
    {
      "inputs": [
        {
          "internalType": "address",
          "name": "owner",
          "type": "address"
        }
      ],
      "name": "balanceOf",
      "outputs": [
        {
          "internalType": "uint256",
          "name": "",
          "type": "uint256"
        }
      ],
      "stateMutability": "view",
      "type": "function"
    },
    {
      "inputs": [],
      "name": "baseTokenURI",
      "outputs": [
        {
          "internalType": "string",
          "name": "",
          "type": "string"
        }
      ],
      "stateMutability": "view",
      "type": "function"
    },
    {
      "inputs": [
        {
          "internalType": "uint256",
          "name": "tokenId",
          "type": "uint256"
        }
      ],
      "name": "getApproved",
      "outputs": [
        {
          "internalType": "address",
          "name": "",
          "type": "address"
        }
      ],
      "stateMutability": "view",
      "type": "function"
    },
    {
      "inputs": [
        {
          "internalType": "address",
          "name": "owner",
          "type": "address"
        },
        {
          "internalType": "address",
          "name": "operator",
          "type": "address"
        }
      ],
      "name": "isApprovedForAll",
      "outputs": [
        {
          "internalType": "bool",
          "name": "",
          "type": "bool"
        }
      ],
      "stateMutability": "view",
      "type": "function"
    },
    {
      "inputs": [
        {
          "internalType": "uint256",
          "name": "_amount",
          "type": "uint256"
        }
      ],
      "name": "mintItem",
      "outputs": [],
      "stateMutability": "payable",
      "type": "function"
    },
    {
      "inputs": [],
      "name": "mintItem",
      "outputs": [],
      "stateMutability": "payable",
      "type": "function"
    },
    {
      "inputs": [],
      "name": "name",
      "outputs": [
        {
          "internalType": "string",
          "name": "",
          "type": "string"
        }
      ],
      "stateMutability": "view",
      "type": "function"
    },
    {
      "inputs": [],
      "name": "owner",
      "outputs": [
        {
          "internalType": "address",
          "name": "",
          "type": "address"
        }
      ],
      "stateMutability": "view",
      "type": "function"
    },
    {
      "inputs": [
        {
          "internalType": "uint256",
          "name": "tokenId",
          "type": "uint256"
        }
      ],
      "name": "ownerOf",
      "outputs": [
        {
          "internalType": "address",
          "name": "",
          "type": "address"
        }
      ],
      "stateMutability": "view",
      "type": "function"
    },
    {
      "inputs": [],
      "name": "renounceOwnership",
      "outputs": [],
      "stateMutability": "nonpayable",
      "type": "function"
    },
    {
      "inputs": [
        {
          "internalType": "address",
          "name": "from",
          "type": "address"
        },
        {
          "internalType": "address",
          "name": "to",
          "type": "address"
        },
        {
          "internalType": "uint256",
          "name": "tokenId",
          "type": "uint256"
        }
      ],
      "name": "safeTransferFrom",
      "outputs": [],
      "stateMutability": "nonpayable",
      "type": "function"
    },
    {
      "inputs": [
        {
          "internalType": "address",
          "name": "from",
          "type": "address"
        },
        {
          "internalType": "address",
          "name": "to",
          "type": "address"
        },
        {
          "internalType": "uint256",
          "name": "tokenId",
          "type": "uint256"
        },
        {
          "internalType": "bytes",
          "name": "data",
          "type": "bytes"
        }
      ],
      "name": "safeTransferFrom",
      "outputs": [],
      "stateMutability": "nonpayable",
      "type": "function"
    },
    {
      "inputs": [
        {
          "internalType": "address",
          "name": "operator",
          "type": "address"
        },
        {
          "internalType": "bool",
          "name": "approved",
          "type": "bool"
        }
      ],
      "name": "setApprovalForAll",
      "outputs": [],
      "stateMutability": "nonpayable",
      "type": "function"
    },
    {
      "inputs": [
        {
          "internalType": "string",
          "name": "_baseTokenURI",
          "type": "string"
        }
      ],
      "name": "setBaseURI",
      "outputs": [],
      "stateMutability": "nonpayable",
      "type": "function"
    },
    {
      "inputs": [
        {
          "internalType": "bytes4",
          "name": "interfaceId",
          "type": "bytes4"
        }
      ],
      "name": "supportsInterface",
      "outputs": [
        {
          "internalType": "bool",
          "name": "",
          "type": "bool"
        }
      ],
      "stateMutability": "view",
      "type": "function"
    },
    {
      "inputs": [],
      "name": "symbol",
      "outputs": [
        {
          "internalType": "string",
          "name": "",
          "type": "string"
        }
      ],
      "stateMutability": "view",
      "type": "function"
    },
    {
      "inputs": [
        {
          "internalType": "uint256",
          "name": "index",
          "type": "uint256"
        }
      ],
      "name": "tokenByIndex",
      "outputs": [
        {
          "internalType": "uint256",
          "name": "",
          "type": "uint256"
        }
      ],
      "stateMutability": "view",
      "type": "function"
    },
    {
      "inputs": [],
      "name": "tokenIdCounter",
      "outputs": [
        {
          "internalType": "uint256",
          "name": "",
          "type": "uint256"
        }
      ],
      "stateMutability": "view",
      "type": "function"
    },
    {
      "inputs": [
        {
          "internalType": "address",
          "name": "owner",
          "type": "address"
        },
        {
          "internalType": "uint256",
          "name": "index",
          "type": "uint256"
        }
      ],
      "name": "tokenOfOwnerByIndex",
      "outputs": [
        {
          "internalType": "uint256",
          "name": "",
          "type": "uint256"
        }
      ],
      "stateMutability": "view",
      "type": "function"
    },
    {
      "inputs": [
        {
          "internalType": "uint256",
          "name": "tokenId",
          "type": "uint256"
        }
      ],
      "name": "tokenURI",
      "outputs": [
        {
          "internalType": "string",
          "name": "",
          "type": "string"
        }
      ],
      "stateMutability": "view",
      "type": "function"
    },
    {
      "inputs": [],
      "name": "totalSupply",
      "outputs": [
        {
          "internalType": "uint256",
          "name": "",
          "type": "uint256"
        }
      ],
      "stateMutability": "view",
      "type": "function"
    },
    {
      "inputs": [
        {
          "internalType": "address",
          "name": "from",
          "type": "address"
        },
        {
          "internalType": "address",
          "name": "to",
          "type": "address"
        },
        {
          "internalType": "uint256",
          "name": "tokenId",
          "type": "uint256"
        }
      ],
      "name": "transferFrom",
      "outputs": [],
      "stateMutability": "nonpayable",
      "type": "function"
    },
    {
      "inputs": [
        {
          "internalType": "address",
          "name": "newOwner",
          "type": "address"
        }
      ],
      "name": "transferOwnership",
      "outputs": [],
      "stateMutability": "nonpayable",
      "type": "function"
    },
    {
      "inputs": [],
      "name": "withdraw",
      "outputs": [],
      "stateMutability": "payable",
      "type": "function"
    }
  ],
  "bytecode": {
    "object": "0x6000600c5560e060405260356080818152906200232e60a039600d90620000279082620001b6565b503480156200003557600080fd5b506040518060400160405280600c81526020016b4172636164652047616d657360a01b815250604051806040016040528060048152602001634152434760e01b8152508160009081620000899190620001b6565b506001620000988282620001b6565b505050620000b5620000af620000bb60201b60201c565b620000bf565b62000282565b3390565b600b80546001600160a01b038381166001600160a01b0319831681179093556040519116919082907f8be0079c531659141344cd1fd0a4f28419497f9722a3daafe3b4186f6b6457e090600090a35050565b634e487b7160e01b600052604160045260246000fd5b600181811c908216806200013c57607f821691505b6020821081036200015d57634e487b7160e01b600052602260045260246000fd5b50919050565b601f821115620001b157600081815260208120601f850160051c810160208610156200018c5750805b601f850160051c820191505b81811015620001ad5782815560010162000198565b5050505b505050565b81516001600160401b03811115620001d257620001d262000111565b620001ea81620001e3845462000127565b8462000163565b602080601f831160018114620002225760008415620002095750858301515b600019600386901b1c1916600185901b178555620001ad565b600085815260208120601f198616915b82811015620002535788860151825594840194600190910190840162000232565b5085821015620002725787850151600019600388901b60f8161c191681555b5050505050600190811b01905550565b61209c80620002926000396000f3fe6080604052600436106101b75760003560e01c80636352211e116100ec578063b88d4fde1161008a578063d547cfb711610064578063d547cfb71461048a578063e985e9c51461049f578063eb93406b146104e8578063f2fde38b146104f057600080fd5b8063b88d4fde1461042f578063c002d23d1461044f578063c87b56dd1461046a57600080fd5b80638da5cb5b116100c65780638da5cb5b146103c657806395d89b41146103e457806398bdf6f5146103f9578063a22cb4651461040f57600080fd5b80636352211e1461037157806370a0823114610391578063715018a6146103b157600080fd5b80632f745c591161015957806342842e0e1161013357806342842e0e146102fc5780634f6ccce71461031c57806351b96d921461033c57806355f804b31461035157600080fd5b80632f745c59146102bf57806332cb6b0c146102df5780633ccfd60b146102f457600080fd5b8063095ea7b311610195578063095ea7b31461024b57806317fb85941461026d57806318160ddd1461028057806323b872dd1461029f57600080fd5b806301ffc9a7146101bc57806306fdde03146101f1578063081812fc14610213575b600080fd5b3480156101c857600080fd5b506101dc6101d7366004611a21565b610510565b60405190151581526020015b60405180910390f35b3480156101fd57600080fd5b50610206610521565b6040516101e89190611a8e565b34801561021f57600080fd5b5061023361022e366004611aa1565b6105b3565b6040516001600160a01b0390911681526020016101e8565b34801561025757600080fd5b5061026b610266366004611ad6565b6105da565b005b61026b61027b366004611aa1565b6106f4565b34801561028c57600080fd5b506008545b6040519081526020016101e8565b3480156102ab57600080fd5b5061026b6102ba366004611b00565b6107e8565b3480156102cb57600080fd5b506102916102da366004611ad6565b610819565b3480156102eb57600080fd5b50610291606481565b61026b6108af565b34801561030857600080fd5b5061026b610317366004611b00565b610994565b34801561032857600080fd5b50610291610337366004611aa1565b6109af565b34801561034857600080fd5b50610291600581565b34801561035d57600080fd5b5061026b61036c366004611bc8565b610a42565b34801561037d57600080fd5b5061023361038c366004611aa1565b610a56565b34801561039d57600080fd5b506102916103ac366004611c11565b610ab6565b3480156103bd57600080fd5b5061026b610b3c565b3480156103d257600080fd5b50600b546001600160a01b0316610233565b3480156103f057600080fd5b50610206610b50565b34801561040557600080fd5b50610291600c5481565b34801561041b57600080fd5b5061026b61042a366004611c2c565b610b5f565b34801561043b57600080fd5b5061026b61044a366004611c68565b610b6a565b34801561045b57600080fd5b50610291662386f26fc1000081565b34801561047657600080fd5b50610206610485366004611aa1565b610ba2565b34801561049657600080fd5b50610206610bad565b3480156104ab57600080fd5b506101dc6104ba366004611ce4565b6001600160a01b03918216600090815260056020908152604080832093909416825291909152205460ff1690565b61026b610c3b565b3480156104fc57600080fd5b5061026b61050b366004611c11565b610d1f565b600061051b82610d95565b92915050565b60606000805461053090611d17565b80601f016020809104026020016040519081016040528092919081815260200182805461055c90611d17565b80156105a95780601f1061057e576101008083540402835291602001916105a9565b820191906000526020600020905b81548152906001019060200180831161058c57829003601f168201915b5050505050905090565b60006105be82610dba565b506000908152600460205260409020546001600160a01b031690565b60006105e582610a56565b9050806001600160a01b0316836001600160a01b0316036106575760405162461bcd60e51b815260206004820152602160248201527f4552433732313a20617070726f76616c20746f2063757272656e74206f776e656044820152603960f91b60648201526084015b60405180910390fd5b336001600160a01b0382161480610673575061067381336104ba565b6106e55760405162461bcd60e51b815260206004820152603e60248201527f4552433732313a20617070726f76652063616c6c6572206973206e6f7420746f60448201527f6b656e206f776e6572206e6f7220617070726f76656420666f7220616c6c0000606482015260840161064e565b6106ef8383610e19565b505050565b80610706662386f26fc1000082611d67565b34101561074c5760405162461bcd60e51b81526020600482015260146024820152734e6f7420656e6f756768204554482073656e742160601b604482015260640161064e565b60058211156107c35760405162461bcd60e51b815260206004820152603860248201527f596f752063616e6e6f74206d696e74206d6f7265207468616e2035204e46547360448201527f20696e20612073696e676c65207472616e73616374696f6e0000000000000000606482015260840161064e565b60005b828110156106ef576107d6610c3b565b806107e081611d86565b9150506107c6565b6107f23382610e87565b61080e5760405162461bcd60e51b815260040161064e90611d9f565b6106ef838383610f06565b600061082483610ab6565b82106108865760405162461bcd60e51b815260206004820152602b60248201527f455243373231456e756d657261626c653a206f776e657220696e646578206f7560448201526a74206f6620626f756e647360a81b606482015260840161064e565b506001600160a01b03919091166000908152600660209081526040808320938352929052205490565b6108b76110ad565b47806109055760405162461bcd60e51b815260206004820152601960248201527f4e6f206574686572206c65667420746f20776974686472617700000000000000604482015260640161064e565b604051600090339047908381818185875af1925050503d8060008114610947576040519150601f19603f3d011682016040523d82523d6000602084013e61094c565b606091505b50509050806109905760405162461bcd60e51b815260206004820152601060248201526f2a3930b739b332b9103330b4b632b21760811b604482015260640161064e565b5050565b6106ef83838360405180602001604052806000815250610b6a565b60006109ba60085490565b8210610a1d5760405162461bcd60e51b815260206004820152602c60248201527f455243373231456e756d657261626c653a20676c6f62616c20696e646578206f60448201526b7574206f6620626f756e647360a01b606482015260840161064e565b60088281548110610a3057610a30611ded565b90600052602060002001549050919050565b610a4a6110ad565b600d6109908282611e51565b6000818152600260205260408120546001600160a01b03168061051b5760405162461bcd60e51b8152602060048201526018602482015277115490cdcc8c4e881a5b9d985b1a59081d1bdad95b88125160421b604482015260640161064e565b60006001600160a01b038216610b205760405162461bcd60e51b815260206004820152602960248201527f4552433732313a2061646472657373207a65726f206973206e6f7420612076616044820152683634b21037bbb732b960b91b606482015260840161064e565b506001600160a01b031660009081526003602052604090205490565b610b446110ad565b610b4e6000611107565b565b60606001805461053090611d17565b610990338383611159565b610b743383610e87565b610b905760405162461bcd60e51b815260040161064e90611d9f565b610b9c84848484611227565b50505050565b606061051b8261125a565b600d8054610bba90611d17565b80601f0160208091040260200160405190810160405280929190818152602001828054610be690611d17565b8015610c335780601f10610c0857610100808354040283529160200191610c33565b820191906000526020600020905b815481529060010190602001808311610c1657829003601f168201915b505050505081565b6001610c4e662386f26fc1000082611d67565b341015610c945760405162461bcd60e51b81526020600482015260146024820152734e6f7420656e6f756768204554482073656e742160601b604482015260640161064e565b6064610c9f60085490565b10610cfb5760405162461bcd60e51b815260206004820152602660248201527f4d6178696d756d20737570706c79206f662031303020686173206265656e2072604482015265195858da195960d21b606482015260840161064e565b600c8054906000610d0b83611d86565b9190505550610d1c33600c54611355565b50565b610d276110ad565b6001600160a01b038116610d8c5760405162461bcd60e51b815260206004820152602660248201527f4f776e61626c653a206e6577206f776e657220697320746865207a65726f206160448201526564647265737360d01b606482015260840161064e565b610d1c81611107565b60006001600160e01b0319821663780e9d6360e01b148061051b575061051b8261136f565b6000818152600260205260409020546001600160a01b0316610d1c5760405162461bcd60e51b8152602060048201526018602482015277115490cdcc8c4e881a5b9d985b1a59081d1bdad95b88125160421b604482015260640161064e565b600081815260046020526040902080546001600160a01b0319166001600160a01b0384169081179091558190610e4e82610a56565b6001600160a01b03167f8c5be1e5ebec7d5bd14f71427d1e84f3dd0314c0f7b2291e5b200ac8c7c3b92560405160405180910390a45050565b600080610e9383610a56565b9050806001600160a01b0316846001600160a01b03161480610eda57506001600160a01b0380821660009081526005602090815260408083209388168352929052205460ff165b80610efe5750836001600160a01b0316610ef3846105b3565b6001600160a01b0316145b949350505050565b826001600160a01b0316610f1982610a56565b6001600160a01b031614610f7d5760405162461bcd60e51b815260206004820152602560248201527f4552433732313a207472616e736665722066726f6d20696e636f72726563742060448201526437bbb732b960d91b606482015260840161064e565b6001600160a01b038216610fdf5760405162461bcd60e51b8152602060048201526024808201527f4552433732313a207472616e7366657220746f20746865207a65726f206164646044820152637265737360e01b606482015260840161064e565b610fea8383836113bf565b610ff5600082610e19565b6001600160a01b038316600090815260036020526040812080546001929061101e908490611f11565b90915550506001600160a01b038216600090815260036020526040812080546001929061104c908490611f24565b909155505060008181526002602052604080822080546001600160a01b0319166001600160a01b0386811691821790925591518493918716917fddf252ad1be2c89b69c2b068fc378daa952ba7f163c4a11628f55a4df523b3ef91a4505050565b600b546001600160a01b03163314610b4e5760405162461bcd60e51b815260206004820181905260248201527f4f776e61626c653a2063616c6c6572206973206e6f7420746865206f776e6572604482015260640161064e565b600b80546001600160a01b038381166001600160a01b0319831681179093556040519116919082907f8be0079c531659141344cd1fd0a4f28419497f9722a3daafe3b4186f6b6457e090600090a35050565b816001600160a01b0316836001600160a01b0316036111ba5760405162461bcd60e51b815260206004820152601960248201527f4552433732313a20617070726f766520746f2063616c6c657200000000000000604482015260640161064e565b6001600160a01b03838116600081815260056020908152604080832094871680845294825291829020805460ff191686151590811790915591519182527f17307eab39ab6107e8899845ad3d59bd9653f200f220920489ca2b5937696c31910160405180910390a3505050565b611232848484610f06565b61123e848484846113ca565b610b9c5760405162461bcd60e51b815260040161064e90611f37565b606061126582610dba565b6000828152600a60205260408120805461127e90611d17565b80601f01602080910402602001604051908101604052809291908181526020018280546112aa90611d17565b80156112f75780601f106112cc576101008083540402835291602001916112f7565b820191906000526020600020905b8154815290600101906020018083116112da57829003601f168201915b5050505050905060006113086114cb565b9050805160000361131a575092915050565b81511561134c578082604051602001611334929190611f89565b60405160208183030381529060405292505050919050565b610efe846114da565b610990828260405180602001604052806000815250611541565b60006001600160e01b031982166380ac58cd60e01b14806113a057506001600160e01b03198216635b5e139f60e01b145b8061051b57506301ffc9a760e01b6001600160e01b031983161461051b565b6106ef838383611574565b60006001600160a01b0384163b156114c057604051630a85bd0160e11b81526001600160a01b0385169063150b7a029061140e903390899088908890600401611fb8565b6020604051808303816000875af1925050508015611449575060408051601f3d908101601f1916820190925261144691810190611ff5565b60015b6114a6573d808015611477576040519150601f19603f3d011682016040523d82523d6000602084013e61147c565b606091505b50805160000361149e5760405162461bcd60e51b815260040161064e90611f37565b805181602001fd5b6001600160e01b031916630a85bd0160e11b149050610efe565b506001949350505050565b6060600d805461053090611d17565b60606114e582610dba565b60006114ef6114cb565b9050600081511161150f576040518060200160405280600081525061153a565b806115198461162c565b60405160200161152a929190611f89565b6040516020818303038152906040525b9392505050565b61154b838361172d565b61155860008484846113ca565b6106ef5760405162461bcd60e51b815260040161064e90611f37565b6001600160a01b0383166115cf576115ca81600880546000838152600960205260408120829055600182018355919091527ff3f7a9fe364faab93b216da50a3214154f22a0a2b415b23a84c8169e8b636ee30155565b6115f2565b816001600160a01b0316836001600160a01b0316146115f2576115f2838261187b565b6001600160a01b038216611609576106ef81611918565b826001600160a01b0316826001600160a01b0316146106ef576106ef82826119c7565b6060816000036116535750506040805180820190915260018152600360fc1b602082015290565b8160005b811561167d578061166781611d86565b91506116769050600a83612028565b9150611657565b60008167ffffffffffffffff81111561169857611698611b3c565b6040519080825280601f01601f1916602001820160405280156116c2576020820181803683370190505b5090505b8415610efe576116d7600183611f11565b91506116e4600a8661203c565b6116ef906030611f24565b60f81b81838151811061170457611704611ded565b60200101906001600160f81b031916908160001a905350611726600a86612028565b94506116c6565b6001600160a01b0382166117835760405162461bcd60e51b815260206004820181905260248201527f4552433732313a206d696e7420746f20746865207a65726f2061646472657373604482015260640161064e565b6000818152600260205260409020546001600160a01b0316156117e85760405162461bcd60e51b815260206004820152601c60248201527f4552433732313a20746f6b656e20616c7265616479206d696e74656400000000604482015260640161064e565b6117f4600083836113bf565b6001600160a01b038216600090815260036020526040812080546001929061181d908490611f24565b909155505060008181526002602052604080822080546001600160a01b0319166001600160a01b03861690811790915590518392907fddf252ad1be2c89b69c2b068fc378daa952ba7f163c4a11628f55a4df523b3ef908290a45050565b6000600161188884610ab6565b6118929190611f11565b6000838152600760205260409020549091508082146118e5576001600160a01b03841660009081526006602090815260408083208584528252808320548484528184208190558352600790915290208190555b5060009182526007602090815260408084208490556001600160a01b039094168352600681528383209183525290812055565b60085460009061192a90600190611f11565b6000838152600960205260408120546008805493945090928490811061195257611952611ded565b90600052602060002001549050806008838154811061197357611973611ded565b60009182526020808320909101929092558281526009909152604080822084905585825281205560088054806119ab576119ab612050565b6001900381819060005260206000200160009055905550505050565b60006119d283610ab6565b6001600160a01b039093166000908152600660209081526040808320868452825280832085905593825260079052919091209190915550565b6001600160e01b031981168114610d1c57600080fd5b600060208284031215611a3357600080fd5b813561153a81611a0b565b60005b83811015611a59578181015183820152602001611a41565b50506000910152565b60008151808452611a7a816020860160208601611a3e565b601f01601f19169290920160200192915050565b60208152600061153a6020830184611a62565b600060208284031215611ab357600080fd5b5035919050565b80356001600160a01b0381168114611ad157600080fd5b919050565b60008060408385031215611ae957600080fd5b611af283611aba565b946020939093013593505050565b600080600060608486031215611b1557600080fd5b611b1e84611aba565b9250611b2c60208501611aba565b9150604084013590509250925092565b634e487b7160e01b600052604160045260246000fd5b600067ffffffffffffffff80841115611b6d57611b6d611b3c565b604051601f8501601f19908116603f01168101908282118183101715611b9557611b95611b3c565b81604052809350858152868686011115611bae57600080fd5b858560208301376000602087830101525050509392505050565b600060208284031215611bda57600080fd5b813567ffffffffffffffff811115611bf157600080fd5b8201601f81018413611c0257600080fd5b610efe84823560208401611b52565b600060208284031215611c2357600080fd5b61153a82611aba565b60008060408385031215611c3f57600080fd5b611c4883611aba565b915060208301358015158114611c5d57600080fd5b809150509250929050565b60008060008060808587031215611c7e57600080fd5b611c8785611aba565b9350611c9560208601611aba565b925060408501359150606085013567ffffffffffffffff811115611cb857600080fd5b8501601f81018713611cc957600080fd5b611cd887823560208401611b52565b91505092959194509250565b60008060408385031215611cf757600080fd5b611d0083611aba565b9150611d0e60208401611aba565b90509250929050565b600181811c90821680611d2b57607f821691505b602082108103611d4b57634e487b7160e01b600052602260045260246000fd5b50919050565b634e487b7160e01b600052601160045260246000fd5b6000816000190483118215151615611d8157611d81611d51565b500290565b600060018201611d9857611d98611d51565b5060010190565b6020808252602e908201527f4552433732313a2063616c6c6572206973206e6f7420746f6b656e206f776e6560408201526d1c881b9bdc88185c1c1c9bdd995960921b606082015260800190565b634e487b7160e01b600052603260045260246000fd5b601f8211156106ef57600081815260208120601f850160051c81016020861015611e2a5750805b601f850160051c820191505b81811015611e4957828155600101611e36565b505050505050565b815167ffffffffffffffff811115611e6b57611e6b611b3c565b611e7f81611e798454611d17565b84611e03565b602080601f831160018114611eb45760008415611e9c5750858301515b600019600386901b1c1916600185901b178555611e49565b600085815260208120601f198616915b82811015611ee357888601518255948401946001909101908401611ec4565b5085821015611f015787850151600019600388901b60f8161c191681555b5050505050600190811b01905550565b8181038181111561051b5761051b611d51565b8082018082111561051b5761051b611d51565b60208082526032908201527f4552433732313a207472616e7366657220746f206e6f6e20455243373231526560408201527131b2b4bb32b91034b6b83632b6b2b73a32b960711b606082015260800190565b60008351611f9b818460208801611a3e565b835190830190611faf818360208801611a3e565b01949350505050565b6001600160a01b0385811682528416602082015260408101839052608060608201819052600090611feb90830184611a62565b9695505050505050565b60006020828403121561200757600080fd5b815161153a81611a0b565b634e487b7160e01b600052601260045260246000fd5b60008261203757612037612012565b500490565b60008261204b5761204b612012565b500690565b634e487b7160e01b600052603160045260246000fdfea264697066735822122053cf2fcd286991c9795e9e659e93810495cb6a68f155a23f2940561197d0462264736f6c63430008100033697066733a2f2f516d54596e54365a436139476b653669456831517159675862625354344354654b48626f55525a37565955373941",
    "linkReferences": {}
  },
  "methodIdentifiers": {
    "MAX_PER_TXN()": "51b96d92",
    "MAX_SUPPLY()": "32cb6b0c",
    "MINT_PRICE()": "c002d23d",
    "approve(address,uint256)": "095ea7b3",
    "balanceOf(address)": "70a08231",
    "baseTokenURI()": "d547cfb7",
    "getApproved(uint256)": "081812fc",
    "isApprovedForAll(address,address)": "e985e9c5",
    "mintItem()": "eb93406b",
    "mintItem(uint256)": "17fb8594",
    "name()": "06fdde03",
    "owner()": "8da5cb5b",
    "ownerOf(uint256)": "6352211e",
    "renounceOwnership()": "715018a6",
    "safeTransferFrom(address,address,uint256)": "42842e0e",
    "safeTransferFrom(address,address,uint256,bytes)": "b88d4fde",
    "setApprovalForAll(address,bool)": "a22cb465",
    "setBaseURI(string)": "55f804b3",
    "supportsInterface(bytes4)": "01ffc9a7",
    "symbol()": "95d89b41",
    "tokenByIndex(uint256)": "4f6ccce7",
    "tokenIdCounter()": "98bdf6f5",
    "tokenOfOwnerByIndex(address,uint256)": "2f745c59",
    "tokenURI(uint256)": "c87b56dd",
    "totalSupply()": "18160ddd",
    "transferFrom(address,address,uint256)": "23b872dd",
    "transferOwnership(address)": "f2fde38b",
    "withdraw()": "3ccfd60b"
  },
  "id": 0
}